:100000000C9457040C9478040C9478040C947804A1
:100010000C9478040C9478040C9478040C94780470
:100020000C9478040C9478040C9478040C94780460
:100030000C9478040C9478040C9478040C94780450
:100040000C9478040C941C0A0C9478040C94780496
:100050000C9478040C9478040C9478040C94780430
:100060000C94910E0C94C50F0C94950F0C9478047D
:100070000C9478040C9478040C9478040C94780410
:100080000C9478040C9478040C9478040C94780400
:100090000C94F30E0C94C30E0C9478040C94780416
:1000A0000C9478040C9478040C9478040C947804E0
:1000B0000C9478040C9478040C9478040C947804D0
:1000C0000C9478040C9478040C9478040C947804C0
:1000D0000C9478040C9478040C9478040C947804B0
:1000E0000C9478040C947A040C94F5090C9457073A
:1000F0000C94F0040C94C9040C943F090C94D104A2
:100100000C9473080C94EB070C94E0060C94100507
:100110000C94890F4E696E650045696768740053D9
:100120006576656E00536978004669766500466FAE
:1001300075720054687265650054776F004F6E6584
:10014000005A65726F005072696E74204361726468
:1001500073206C697374007072696E740052656DFF
:100160006F7665204D6966617265206361726420F7
:1001700066726F6D206C6973742E205573616765AC
:100180003A20726D203C6361726420756964206955
:100190006E204845583E00726D00416464204D69F0
:1001A00066617265204361726420746F206C6973AC
:1001B000742E2055736167653A20616464203C6346
:1001C0006172642075696420696E204845583E203C
:1001D0003C6361726420686F6C646572206E616D4F
:1001E000653E006164640052656164204D6966612A
:1001F0007265204361726420616E64207072696E62
:100200007420636172642055494400726561640022
:100210005072696E74206D656D6F727920757361AF
:10022000676520616E64206368616E676520636F37
:100230006D706572656420746F2070726576696F89
:1002400075732063616C6C006D656D005072696E32
:100250007420616E6420646973706C6179206D61D3
:10026000746368696E67206E756D62657220557380
:100270006167653A206E756D626572203C646563E6
:10028000696D616C206E756D6265723E006E756D94
:10029000626572005072696E74204153434949206F
:1002A0007461626C6573006173636969005072699F
:1002B0006E7473206F757420616C6C2070726F7631
:1002C00069646564203320617267756D656E74734F
:1002D0002055736167653A206578616D706C6520A3
:1002E0003C617267756D656E743E203C6172677526
:1002F0006D656E743E203C617267756D656E743E0F
:10030000006578616D706C65005072696E7420468E
:10031000572076657273696F6E0076657273696FC8
:100320006E004765742068656C700068656C7000CD
:100330000D0A005468697320636172642069732038
:100340006E6F7420696E20746865206C6973742EFA
:100350002043616E6E6F742072656D6F766521202B
:100360000D0A000D0A0052656D6F766564206361A9
:100370007264205549443A20000D0A0052656D6FA1
:100380007665642063617264205549443A20000D0B
:100390000A0020486F6C646572206E616D653A20BA
:1003A000002053697A653A200041646465642063E3
:1003B0006172642E205549443A20004361726420E2
:1003C00063616E6E6F742061646465642E2054688E
:1003D00061742055494420697320616C72656164C1
:1003E0007920696E20746865206C69737421200D12
:1003F0000A00554944206973206D6F726520746846
:10040000616E2031302062797465732C2063616ED7
:100410006E6F7420616464206361726421200D0A30
:10042000004D656D6F7279206F7065726174696FD0
:100430006E206661696C6564210D0A004D656D6F03
:100440007279206F7065726174696F6E2066616980
:100450006C6564210D0A000D0A0020486F6C64650C
:1004600072206E616D653A20005D3A20002055498A
:10047000445B0025752E20004E6F2063617264730B
:1004800020696E20746865206C69737421200D0AE0
:10049000000D0A00203A2000496D706C656D656E94
:1004A00074656420636F6D6D616E64733A0D0A004C
:1004B0000D0A00436F6D6D616E6420686164206693
:1004C0006F6C6C6F77696E6720617267756D656EB2
:1004D00074733A0D0A006176722D6C69626320763E
:1004E000657273696F6E3A20322E302E302061763D
:1004F000722D6763632076657273696F6E3A20347C
:100500002E392E320D0A0056657273696F6E3A20CD
:100510006C6162362D302D6764643439343763651D
:10052000206275696C74206F6E3A204A616E2032C9
:100530003520323031382030313A32393A34330DC7
:100540000A004572726F72000D0A00506C6561738B
:100550006520656E746572206E756D6265722062CD
:1005600065747765656E203020616E642039000DFA
:100570000A0041013D01390133012E012901250104
:100580001F0119011401497473206E6F74206120DA
:100590006E756D626572000D0A00456E746572209D
:1005A0006E756D6265722C20706C656173652100DB
:1005B0004C61726765737420616C6C6F6361626C0F
:1005C0006520626C6F636B3A20202025750D0A0050
:1005D0004C61726765737420667265656C697374CB
:1005E00020626C6F636B3A2020202025750D0A0075
:1005F0004C61726765737420626C6F636B20696E07
:1006000020667265656C6973743A2025750D0A0061
:10061000426C6F636B7320696E20667265656C69EE
:1006200073743A202020202020202025750D0A00F8
:10063000467265656C6973742073697A653A202027
:10064000202020202020202020202025750D0A0099
:100650000D0A467265656C6973740D0A0043757204
:1006600072656E74202025640D0A50726576696F7C
:1006700075732025640D0A4368616E67652020202C
:1006800025640D0A000D0A5370616365206265746C
:100690007765656E20737461636B20616E6420689A
:1006A0006561703A0D0A00557365643A2025750D31
:1006B0000A467265653A2025750D0A004865617025
:1006C00020737461746973746963730D0A000D0A91
:1006D000002062797465732900202873697A653A6D
:1006E000200043617264205549443A20000D0A00FD
:1006F0004361726420747970653A200043617264CA
:100700002073656C6563746564210D0A00556E6124
:10071000626C6520746F2073656C6563742063611F
:1007200072642E0D0A000D0A00546F206665772052
:100730006F7220746F6F206D616E792061726775C2
:100740006D656E747320666F7220746869732063C0
:100750006F6D6D616E640D0A09557365203C6865A7
:100760006C703E0D0A00436F6D6D616E64206E6F9C
:100770007420696D706C656D656E7465642E0D0A0C
:1007800009557365203C68656C703E20746F206766
:1007900065742068656C702E0D0A000D0A00436FA9
:1007A0006E736F6C6520737461727465640D0A00FA
:1007B000557365206261636B737061636520746F4C
:1007C0002064656C65746520656E74727920616E55
:1007D0006420656E74657220746F20636F6E666945
:1007E000726D0D0A000D0A004D61696E20636F6E17
:1007F000736F6C6520737461727465640D0A0061B7
:1008000076722D6C6962632076657273696F6E3AD9
:1008100020322E302E30206176722D676363207671
:10082000657273696F6E3A20342E392E320D0A00CC
:1008300056657273696F6E3A206C6162362D302D89
:10084000676464343934376365206275696C742079
:100850006F6E3A204A616E203235203230313820B6
:1008600030313A32393A34330D0A0020732E0D0AF2
:1008700000557074696D653A200041636365737358
:100880002064656E69656421004E616D6520726546
:100890006164206572726F72004A616E2050656EED
:1008A000747368756B000D0A002230780000112403
:1008B0001FBECFEFD1E2DEBFCDBF00E00CBF13E023
:1008C000A0E0B2E0E4E1F6E300E00BBF02C0079075
:1008D0000D92AE36B107D9F726E0AEE6B3E001C01F
:1008E0001D92A731B207E1F70E94CE100C94081BAD
:1008F0000C940000AF92BF92CF92DF92EF92FF92E2
:100900000F931F93CF93DF937C016B018BE997E0EB
:100910000E94450FF601A080B1800AE012E0C0E01D
:10092000D0E0F80160817181C5010E943617892BE2
:10093000C9F4F1E0EF1AF10887E08C9FF0018D9F78
:10094000F00D1124E65FFD4F868190E0E816F90670
:1009500019F089E297E00EC00480F581E02DC60110
:1009600019950AC02196095F1F4FCA30D105C9F6F3
:1009700086E697E00E94450F80E090E0DF91CF91FE
:100980001F910F91FF90EF90DF90CF90BF90AF90AD
:10099000089587E095E00E94450F86ED94E00C9461
:1009A000450F0F931F93CF93DF93EC0183EB94E0FC
:1009B0000E94450F8E010E5F1F4F2896F80181910E
:1009C00091918F010E94890F80EB94E00E94450F66
:1009D0000C171D0799F7DF91CF911F910F91089583
:1009E000CF93DF9388E994E00E94450FCAE0D2E0FC
:1009F000888199810E94450F84E994E00E94450F07
:100A00008A819B810E94450F81E994E00E94450FF5
:100A1000279682E0C035D80759F7DF91CF91089526
:100A2000CF92DF92EF92FF920F931F93CF93DF93BA
:100A3000CDB7DEB7C250D1400FB6F894DEBF0FBEBF
:100A4000CDBF8E010F5F1F4F80E091E0F8019C0148
:100A5000119221503040E1F76E0131E0C30ED31EF8
:100A600080910F0690911006009711F487E196E0AF
:100A7000C81AD90A8CEB96E00E94450F2DB73EB7F5
:100A80008091080290910902281B390B809106027F
:100A9000909107027901E81AF90A0E94990A9701D0
:100AA000281B390B3F932F939F938F9387EA96E0F0
:100AB0009F938F931F930F930E940C18C8010E945D
:100AC000890F85E896E00E94450F8091E10390919F
:100AD000E2039601281B390B3F932F939F938F932B
:100AE000DF92CF928DE596E09F938F931F930F93A4
:100AF0000E940C18C8010E94890F80E596E00E94B0
:100B0000450FE0911106F09112060FB6F894DEBF82
:100B10000FBECDBF80E090E0309751F00280F381AE
:100B2000E02D208131812E5F3F4F820F931FF4CF44
:100B30009F938F9380E396E09F938F931F930F93E0
:100B40000E940C18C8010E94890FE0911106F091D3
:100B500012060F900F900F900F900F900F9080E063
:100B600090E0309729F00280F381E02D0196F9CFD3
:100B70009F938F9380E196E09F938F931F930F93A2
:100B80000E940C18C8010E94890FE0911106F09193
:100B900012060F900F900F900F900F900F9080E023
:100BA00090E0309751F0208131818217930708F44B
:100BB000C9010280F381E02DF4CF9F938F9380EFE2
:100BC00095E09F938F931F930F930E940C18C80179
:100BD0000E94890FE0911106F09112060F900F907C
:100BE0000F900F900F900F90E12CF12C309751F057
:100BF00080819181E816F90608F47C010280F38176
:100C0000E02DF4CF0E94770A8E159F0508F4C701E6
:100C10009F938F9380ED95E09F938F931F930F93F6
:100C20000E940C18C8010E94890F0E94770A9F93A6
:100C30008F9380EB95E09F938F931F930F930E9468
:100C40000C18C8010E94890FD092E203C092E10300
:100C50000FB6F894DEBF0FBECDBFCE5FDE4F0FB62E
:100C6000F894DEBF0FBECDBFDF91CF911F910F91E2
:100C7000FF90EF90DF90CF9008957F928F929F9298
:100C8000AF92BF92CF92DF92EF92FF920F931F939A
:100C9000CF93DF93CDB7DEB7DA950FB6F894DEBF0A
:100CA0000FBECDBF6C015B014A019E012F5F3F4F1C
:100CB000790180E091E0F9019C01119221503040CE
:100CC000E1F781E08AAB82E08BAB83E08CAB84E020
:100CD0008DAB85E08EAB86E08FAB87E088AF88E098
:100CE00089AF89E08AAF5AE023965FAF23974BE044
:100CF00024964FAF24973CE025963FAF25972DE0F3
:100D000026962FAF26979EE027969FAF27978FE0D6
:100D100028968FAF2897A3965FAFA397A4964FAF5F
:100D2000A497A5963FAFA597A6962FAFA697A7968F
:100D30009FAFA797A8968FAFA897A40160E070E037
:100D4000C5010E946717880C991C712C072D10E0B3
:100D50000815190500F5C6010E947E170817190726
:100D6000D0F4872D8695D501A80FB11DF601E00FAF
:100D7000F11F81819701280F311D8081F701E80F54
:100D8000F11D90819295907FF9018081982B9C9321
:100D900073947394DBCF80E0D3950FB6F894DEBFE5
:100DA0000FBECDBFDF91CF911F910F91FF90EF90BC
:100DB000DF90CF90BF90AF909F908F907F900895DD
:100DC000EF92FF920F931F93CF93DF93FC01E2808A
:100DD000F380C7010E941117EC01C7010E947E1722
:100DE00087017801E80EF91E0E151F05D1F0F801F4
:100DF00081918F01082E000C990B0E942F17892BCF
:100E000099F78AE995E00E94450F87E995E00E94ED
:100E1000450F0E94911080EC0E948E1086E895E0AC
:100E200028C0CA30D105B0F40E94911080EC0E9415
:100E30008E10CC0FDD1FCE58DA4FFE0185919491B4
:100E40000E94450F8FE695E00E94450FFE018591B7
:100E500094910FC08BE495E00E94450F88E495E0E3
:100E60000E94450F0E94911080EC0E948E1082E437
:100E700095E0DF91CF911F910F91FF90EF900C942F
:100E80007E10CF93C82F82958F708A3010F097E331
:100E900001C090E3890F0E942C0FCF70CA3010F46C
:100EA00080E301C087E38C0FCF910C942C0F1F932C
:100EB000CF93DF93CDB7DEB7A0970FB6F894DEBF20
:100EC0000FBECDBF86E297E00E94B40E0E94010DD6
:100ED000882309F466C08CEF96E00E94450FCE018E
:100EE00001960E945A0D80EF96E00E94450F8C8576
:100EF00082FD1CC08930E9F050F4813009F468C0EB
:100F000008F460C0883059F483EB92E01AC0803155
:100F100030F0823108F459C0883109F450C085FDA1
:100F20000BC086FD0CC089E293E00BC086E093E025
:100F300008C08CE992E005C080E592E002C084E739
:100F400092E00E94890F8DEE96E00E94450F82EE9E
:100F500096E00E94450F10E08981181758F4E2E0EE
:100F6000F0E0EC0FFD1FE10FF11D80810E944107B1
:100F70001F5FF2CF89ED96E00E94450F89810E94A4
:100F8000410781ED96E00E94450FAE01435F5F4F40
:100F9000BE01695E7F4F82E50E94BC0C8EEC96E03C
:100FA00002C08DE097E00E94450FA0960FB6F8941E
:100FB000DEBF0FBECDBFDF91CF911F9108958EEBA5
:100FC00092E0BFCF89EC92E0BCCF8BEE92E0B9CF3C
:100FD00087EF92E0B6CF8F929F92AF92BF92CF925F
:100FE000DF92EF92FF920F931F93CF93DF93CDB7D2
:100FF000DEB764970FB6F894DEBF0FBECDBF009189
:101000000304109104040115110521F488E794E00C
:101010000E94450FEE24E394F12C93E7A92E94E06F
:10102000B92ECE0101964C010115110509F448C0F5
:10103000FF92EF92BF92AF929F928F920E940C18F4
:10104000C4010E94890F8DE694E00E94450FD801EB
:1010500012968C910E94410789E694E00E94450F08
:101060000F900F900F900F900F900F90C12CD12CDC
:10107000F80182819381C816D90660F4D801ED91F8
:10108000FC91EC0DFD1D80810E944107BFEFCB1A42
:10109000DB0AEECF8AE594E00E94450FD801149652
:1010A0008D919C9115970E94890F87E594E00E948D
:1010B000450FF80106811781FFEFEF1AFF0AB4CF41
:1010C00064960FB6F894DEBF0FBECDBFDF91CF910F
:1010D0001F910F91FF90EF90DF90CF90BF90AF9056
:1010E0009F908F900895EF92FF920F931F93CF934D
:1010F000DF938C0188E090E00E94F015892B19F4B1
:101100008CE394E0B4C0C0910304D09104048881BE
:101110009981892B69F481E294E00E94450FCE0108
:10112000DF91CF911F910F91FF90EF900C94881653
:1011300088E090E00E94F015EC01D80112968D91A4
:101140009C9113970E947E17969587959B838A831F
:101150000E94F01599838883F801848195810E940B
:101160007E170E94F0159D838C83D80114966D9193
:101170007C9115970E9477174A815B8168817981FC
:10118000F801828193810E943D064A815B814B3048
:10119000510518F082EF93E06AC0009103041091AA
:1011A00004043091DF032091E003F801309779F1D6
:1011B000828193818417950731F581E090E020E0EA
:1011C00030E024173507A1F068817981620F731F21
:1011D000A081B1817D01E20EF31EDB017C91D7017C
:1011E0006C91761711F080E090E02F5F3F4FE9CFD0
:1011F000382F292F009739F09093E0038093DF0375
:101200008BEB93E034C00680F781E02DCFCF309395
:10121000DF032093E0030E831F83D0930404C09365
:10122000030489EA93E00E94450F00E010E08A8100
:101230009B810817190750F4E881F981E00FF11F2D
:1012400080810E9441070F5F1F4FF1CF81EA93E039
:101250000E94450F8A810E94410782E993E00E9423
:10126000450F8C819D810E94890F8FE893E0DF916B
:10127000CF911F910F91FF90EF900C94450FAF927B
:10128000BF92CF92DF92EF92FF920F931F93CF9373
:10129000DF93EC018A819B810E947E175C01B694EA
:1012A000A794C5010E94F0157C01A501BC018A81AB
:1012B0009B810E943D06C0910304D091040480915B
:1012C000DF039091E003E0E0F0E0209701F12A8154
:1012D0003B812A153B05B1F46701C70100E010E02E
:1012E0000A151B0531F1DC012D91CD01A881B981D1
:1012F000A00FB11F3C91321303C00F5F1F4FF0CFFF
:1013000080E090E0FE010E80DF81C02DDECF909363
:10131000E0038093DF0383E393E0DF91CF911F919C
:101320000F91FF90EF90DF90CF90BF90AF900C9413
:10133000450F81E090E09093E0038093DF033097C6
:10134000C1F48E819F8190930404809303048CE701
:1013500093E00E94450F0E0D1F1DC016D10631F0FF
:10136000F60181916F010E944107F7CF89E793E071
:1013700015C08E819F819783868386E693E00E94C5
:10138000450F0E0D1F1DC016D10631F0D6018D91EF
:101390006D010E944107F7CF83E693E00E94450F5D
:1013A000C7010E948816888199810E9488168C81C5
:1013B0009D810E948816CE01DF91CF911F910F91E0
:1013C000FF90EF90DF90CF90BF90AF900C94881675
:1013D000CF93C0E28C2F0E942C0FCF5FCF37D1F775
:1013E00080E393E0CF910C94450FCF93DF93CDB77B
:1013F000DEB7C058D1090FB6F894DEBF0FBECDBF1F
:101400000E94E809FE01319680E8DF011D928A956D
:10141000E9F7DF0190E09D939F5F9038E1F7CF01FE
:101420000E94540FC058DF4F0FB6F894DEBF0FBEB6
:10143000CDBFDF91CF9108951F920F920FB60F92FB
:1014400011240BB60F922F933F934F935F936F939B
:101450007F938F939F93AF93BF93EF93FF930E94DC
:10146000B210FF91EF91BF91AF919F918F917F91BA
:101470006F915F914F913F912F910F900BBE0F9005
:101480000FBE0F901F9018959CB590619CBD8EBDAE
:101490000DB407FEFDCF8EB50895EF92FF920F9326
:1014A0001F93CF93DF931F921F92CDB7DEB7182FF4
:1014B000289882E169837A830E94440A6981062F11
:1014C000E62E7A81F72E8E2D801B811730F4F701DE
:1014D00081917F010E94440AF6CF289A0F900F90C5
:1014E000DF91CF911F910F91FF90EF900895209180
:1014F0000F06309110062115310521F420910602C6
:10150000309107028091040290910502009741F406
:101510008DB79EB74091080250910902841B950B2C
:101520002817390718F4821B930B089580E090E088
:10153000089520910F063091100621153105D9F03C
:101540008091060290910702281B390BE091110649
:10155000F09112068EEF9FEF309759F04081518144
:10156000BC01641B750B260F371F0280F381E02D31
:10157000F3CFC901089580E090E00895EF92FF92C3
:101580000F931F93CF93DF93EC01FC01E159FF4FC1
:101590000190F081E02D84E593E019957E0189E6C4
:1015A000E80EF11CF701808191818E0109591F4FCE
:1015B000F80140815181481B590B4F5F5F4FBC01BF
:1015C0006E5F7F4F6C0F7D1F01968C0F9D1F0E94D9
:1015D0005517F70180819181019791838083F801EC
:1015E00080819181C80FD91F1A82019791838083CE
:1015F000DF91CF911F910F91FF90EF900895EF929F
:10160000FF920F931F93CF93DF93CDB7DEB7609711
:101610000FB6F894DEBF0FBECDBF7C0190E18E0106
:101620000F5F1F4FD801E92F1D92EA95E9F71616B3
:1016300017062CF47F936F9327E633E00AC06115F9
:101640007105A1F07195619571097F936F932CE5F8
:1016500033E03F932F931F929F931F930F930E940A
:10166000CF170FB6F894DEBF0FBECDBFD701ED91F7
:10167000FC91C801199560960FB6F894DEBF0FBEB5
:10168000CDBFDF91CF911F910F91FF90EF90089503
:10169000EF92FF920F931F93CF93DF93CDB7DEB7F7
:1016A00060970FB6F894DEBF0FBECDBF7C011F92CE
:1016B00081E08F931F9288E68F9322E633E03F9379
:1016C0002F931F9280E18F938E010F5F1F4F1F9307
:1016D0000F930E94CF17D701ED91FC91C801199586
:1016E0000FB6F894DEBF0FBECDBF60960FB6F8946C
:1016F000DEBF0FBECDBFDF91CF911F910F91FF9045
:10170000EF9008957F928F929F92AF92BF92CF9267
:10171000DF92EF92FF920F931F93CF93DF931F926D
:101720001F92CDB7DEB76C017B015A018C010159C4
:101730001F4FD801ED91FC918AE393E0199519822E
:101740001A824601B7E68B0E911C80E2782EF401D6
:1017500080819181E816F9069CF4F601EE0DFF1DDB
:101760008281882311F0898301C07982D801ED91AB
:10177000FC91CE0101961995BFEFEB1AFB0AE7CF5A
:10178000C8010E94480BB501C8010E94FF0A0F90D2
:101790000F90DF91CF911F910F91FF90EF90DF900D
:1017A000CF90BF90AF909F908F907F900895289892
:1017B0008E7780680E94440A80E00E94440A289A3A
:1017C0000895CF93DF931F92CDB7DEB728988E7719
:1017D00069830E94440A6981862F0E94440A289ADC
:1017E0000F90DF91CF910895CF93C82F0E94D70B10
:1017F000682F60688C2FCF910C94E10B7F928F92B1
:101800009F92AF92BF92CF92DF92EF92FF920F938F
:101810001F93CF93DF934C01F62EEA015901680123
:101820000115110519F0F801908101C090E0192F00
:10183000F0E1EF9E100D112460E082E00E94E10BC8
:101840006FE788E00E94E10B84E10E94F40BB40191
:101850008F2D0E944D0A612F8AE10E94E10B6CE0FE
:1018600082E00E94E10B8AE10E94F40B00ED17E098
:1018700088E00E94D70B982F907331F480FD67C0E9
:1018800001501109A9F763C08CE00E94D70BF82E14
:10189000837109F05EC0209709F455C0A114B1040A
:1018A00009F451C084E10E94D70BF501908198178B
:1018B00008F451C080838823E9F128980FEF080FBE
:1018C00082E90E94440A7C2E8C2E9D2EAA24A39489
:1018D000B12C882D8719801730F581111BC0EE209F
:1018E000C9F09E2D10E0983048F49501092E01C0F2
:1018F000220F0A94EAF7122B9F5FF5CF82E90E942C
:10190000440A212F2095988192238123192F182B87
:10191000188305C082E90E94440AF4018083FFEF26
:101920008F1A9F0AD6CFC00FD11D80E00E94440AB3
:101930008883289A88E10E94D70B8770C114D1044C
:1019400011F0F6018083F3FC08C081E007C084E059
:1019500005C082E003C085E001C083E0DF91CF9144
:101960001F910F91FF90EF90DF90CF90BF90AF90BD
:101970009F908F907F900895AF92BF92CF92DF9209
:10198000EF920F931F93CF93DF931F921F92CDB7C8
:10199000DEB78A836115710529F1FA0180818230F1
:1019A00008F16A015B018CE10E94D70B682F6F7709
:1019B0008CE10E94E10B87E08983E12C8E010F5FAF
:1019C0001F4F9601A50161E0CE0102960E94FE0B19
:1019D000813059F4F6019081923031F4998191115E
:1019E00003C003C085E001C082E00F900F90DF913B
:1019F000CF911F910F91EF90DF90CF90BF90AF905C
:101A00000895CF93DF9300D0CDB7DEB782E08B830C
:101A1000AE014D5F5F4FBE016F5F7F4F86E20E9458
:101A2000BC0C982F9D7F81E0913009F080E00F90F1
:101A30000F900F90DF91CF910895EF92FF920F9347
:101A40001F93CF93DF937C01C62F8A0160E082E071
:101A50000E94E10B64E08AE00E94E10B84E10E94B5
:101A6000F40BB7018C2F0E944D0A63E082E00E94C4
:101A7000E10BC8E8D3E18AE00E94D70B82FD04C0E5
:101A80002197C9F784E00FC060E082E00E94E10B7B
:101A900084E40E94D70BF801808382E40E94D70B74
:101AA000F801818381E0DF91CF911F910F91FF9029
:101AB000EF9008952F923F924F925F926F927F9294
:101AC0008F929F92AF92BF92CF92DF92EF92FF924E
:101AD0000F931F93CF93DF93CDB7DEB72B970FB63E
:101AE000F894DEBF0FBECDBF6C018CE10E94D70B16
:101AF000682F6F778CE10E94E10BFF24F394AA24F6
:101B0000A394B12C22E0F21651F033E0F31661F009
:101B100041E0F412E8C083E98983712C09C085E9AA
:101B20008983E3E07E2E04C087E9898376E0772EFF
:101B3000312C47E0642E50E7552E63E0462E80E2BC
:101B400038121CC05A829C818B8189279D818927EC
:101B50009E8189278F83AE01485F5F4F67E0CE018A
:101B600001960E941D0D813009F0C2C01B864A8675
:101B7000FE0137964F0129E0222E1FC0932D97704A
:101B80009B87232D25952595259582E0820F392F5A
:101B9000F0E18F9F300D11243A8331E0911101C0A3
:101BA00030E0232E280E88248394912C8C0E9D1EC9
:101BB000880E911C862D821B8A87EB846E2D629580
:101BC000607F6E0D8AE10E94E10B8E01055F1F4F61
:101BD0009E01265F3F4FA401622DCE0101960E9417
:101BE000FE0B833089F58CE10E94D70B85FD79C00F
:101BF0008F7109F480E2282F30E0432D330C550B10
:101C0000421753070CF06FC0382EC9010197877037
:101C1000992725952595259531E0320F21E08111F1
:101C200001C020E0230FE1E0F0E0EC0FFD1FE20F28
:101C3000F11D950102C0220F331F8A95E2F7C901F9
:101C40009081892B80837BCF813009F051C030E2B5
:101C5000331619F030E2332E75CF8B81883819F0A6
:101C600032E024E002C033E023E080E090E0672D22
:101C700070E0FC01E60FF71FEC0DFD1D432F480F30
:101C8000A1E0B0E0AC0FBD1FA40FB11D4C9141838A
:101C90000196821770F38A85833039F58B8581111F
:101CA00024C0AE014D5F5F4F61E0C4010E941D0D75
:101CB0008130F1F49B81F4018181981318C09C81DB
:101CC0008281981314C0808182FF02C0F3941ACFDE
:101CD000F60183878F2D880FF80EF394F08281E050
:101CE00007C083E005C086E003C082E001C088E051
:101CF0002B960FB6F894DEBF0FBECDBFDF91CF910C
:101D00001F910F91FF90EF90DF90CF90BF90AF9019
:101D10009F908F907F906F905F904F903F902F900B
:101D200008951F920F920FB60F9211240F900FBEBD
:101D30000F901F90189520918D0430E02F5F3F4F3A
:101D40002F77332740918C0450E024173507D1F3C7
:101D5000F901E157FA4F808320938D048091C900E7
:101D600080628093C9000895CF93DF93FC01849132
:101D7000EF012196882321F00E949B0EFE01F7CFF0
:101D8000DF91CF9108951F920F920FB60F921124F9
:101D90000BB60F928F939F93EF93FF9390918D04C7
:101DA00080918C04981779F080918C0490E00196D2
:101DB0008F77992780938C04FC01E157FA4F80813B
:101DC0008093CE0005C08091C9008F7D8093C900AB
:101DD000FF91EF919F918F910F900BBE0F900FBECF
:101DE0000F901F9018951F920F920FB60F9211240B
:101DF0000BB60F922F933F934F935F938F939F93C5
:101E0000EF93FF932091C8003091CE00287180910C
:101E10008B0490E001968F77992740918A0450E0D7
:101E20008417950739F080938B04FC01E15FFA4F2A
:101E3000308301C022E020930E05FF91EF919F9126
:101E40008F915F914F913F912F910F900BBE0F900B
:101E50000FBE0F901F9018952091890430E02F5FDE
:101E60003F4F2F7733274091880450E024173507E0
:101E7000D1F3F901E257FB4F8083209389048091CD
:101E8000C10080628093C1000895CF93DF93FC016D
:101E90008491EF012196882321F00E942C0FFE01EE
:101EA000F7CFDF91CF9108950F931F93CF93DF93D7
:101EB000EC018C0100581F4F888190EE980F9F35E0
:101EC000D0F089EA98E00E94450F888182958F7052
:101ED0008A3010F097E301C090E3890F0E942C0F25
:101EE00088818F708A3010F490E301C097E3890FE6
:101EF0000E942C0F82E20E942C0F2196C017D1075E
:101F0000D9F686EA98E0DF91CF911F910F910C945A
:101F1000450FCF93DF93EC018991882319F00E943C
:101F20002C0FFACFDF91CF9108951F920F920FB629
:101F30000F9211240BB60F928F939F93EF93FF9301
:101F40009091890480918804981779F08091880491
:101F500090E001968F77992780938804FC01E257DF
:101F6000FB4F80818093C60005C08091C1008F7DAA
:101F70008093C100FF91EF919F918F910F900BBEC5
:101F80000F900FBE0F901F9018951F920F920FB6D3
:101F90000F9211240BB60F922F933F934F935F93A1
:101FA0008F939F93EF93FF932091C0003091C600D1
:101FB00028718091870490E001968F77992740914E
:101FC000860450E08417950739F080938704FC015C
:101FD000EA5FFB4F308301C022E020930504FF91AC
:101FE000EF919F918F915F914F913F912F910F9022
:101FF0000BBE0F900FBE0F901F901895E2E0F1E01E
:102000008081806480830895E2E0F1E080818F7BAD
:1020100080830895CF93DF93C82FD62F809102013C
:10202000662311F0806201C08F7D80930201809150
:102030000201C7FF02C0806101C08F7E8093020150
:1020400080910201C6FF02C0886001C0877F809333
:102050000201C5FF02C0739A01C07398C4FF02C099
:10206000A59A01C0A59800C00E94FE0F82E08A9543
:10207000F1F700C00E94041080910201C3FF02C06A
:10208000806101C08F7E8093020180910201C2FFB6
:1020900002C0886001C0877F80930201C1FF02C037
:1020A000739A01C07398C0FF02C0A59A01C0A59899
:1020B00000C00E94FE0F92E09A95F1F700C00E94C6
:1020C00004108091020180618093020180910201DD
:1020D000886080930201739AA59AD11108C0C43018
:1020E00030F48FE999E10197F1F700C003C095ED55
:1020F0009A95F1F70000DF91CF910895CF93DF9388
:10210000FC018491EF012196882329F061E00E946F
:102110000A10FE01F6CFDF91CF91089560E00C9494
:102120000A10CF93C0EC8C2F0E948E1061E080E2E9
:102130000E940A10CF5FC03DB1F7CF910895FC0116
:102140000FB6F894609113067091140680911506ED
:10215000909116060FBE309721F0608371838283C1
:10216000938308958F938FB78F93F894809113067C
:102170008F5F80931306809114068F4F809314060F
:10218000809115068F4F80931506809116068F4F0C
:10219000809316068F918FBF8F910895CF93DF9311
:1021A000CDB7DEB76E970FB6F894DEBF0FBECDBFCA
:1021B000789481B1856081B982B18A7F82B980913A
:1021C000010180648093010180910101806280930C
:1021D00001018091010180618093010180910101E1
:1021E0008860809301016B9A9D9A0E9404108091EF
:1021F00002018F7D809302018091020180618093B2
:10220000020180910201886080930201739AA59A6D
:102210008FE59AEE0197F1F700C00000809102016E
:102220008F7E8093020180910201877F809302015B
:1022300000C00E94FE0F92E09A95F1F700C00E9444
:102240000410EFE0F0E43197F1F700C000000E94C5
:10225000FE0FF2E0FA95F1F700C00E9404108FE83B
:1022600091E00197F1F700C000000E94FE0F92E09C
:102270009A95F1F700C00E940410E5EDEA95F1F798
:102280000000A59800C00E94FE0FF2E0FA95F1F759
:1022900000C00E94041085ED8A95F1F70000A59812
:1022A00000C00E94FE0F92E09A95F1F700C00E94D4
:1022B0000410E2E0EA95F1F700C08091020180612C
:1022C0008093020100C00E94FE0FF2E0FA95F1F740
:1022D00000C00E94041085ED8A95F1F7000088E0A7
:1022E0000E948E1081E00E948E1086E00E948E1067
:1022F0008CE00E948E1081E00E948E1089E998E0A7
:102300000E947E1010928D0410928C0410928B0407
:1023100010928A041092CD0037E6F32EF092CC0092
:1023200008E90093C90016E01093CA008EE997E00F
:102330000E94B40E109289041092880410928704AF
:10234000109286041092C500F092C4000093C10060
:102350001093C20088EE97E00E94450F89E998E04B
:102360000E94450F85EE97E00E94450F80EB97E0B5
:102370000E94450F209A289A80910A0181608093DB
:102380000A0180910B01816080930B010CB406FC63
:1023900006C0219A229A239881E58CBD1DBC8091AC
:1023A0000B0180FD33C080910B01816080930B0194
:1023B00084EF91E020E931E0F9013197F1F70197DD
:1023C000D9F760E884E50E94E10B69EA86E50E949E
:1023D000E10B63E088E50E94E10B68EE8AE50E946C
:1023E000E10B60E48AE20E94E10B6DE382E20E946D
:1023F000E10B88E20E94D70B982F93709330E9F09D
:10240000682F636088E20E94E10B17C06FE082E0F2
:102410000E94E10B84EF91E020E931E0F90131976E
:10242000F1F70197D9F708E813E182E00E94D70B92
:1024300084FFC7CF01501109C1F745E650E060E0C5
:1024400070E080E793E00E9467171092D603109225
:10245000D5031092D8031092D7031092DA0310928A
:10246000D9031092DC031092DB0386E393E0909390
:102470006F0380936E0389E89FE09093DE0380935F
:10248000DD0386E393E00E94890F8AE794E090934E
:10249000DA038093D903109280001092810080911A
:1024A00081008860809381008091810084608093A6
:1024B000810085E594EF9093890080938800809156
:1024C0006F00826080936F0080E398E00E94B40EFA
:1024D0008FEF97E00E94B40EABE03A2E8E010F5FB3
:1024E0001F4FB4E02B2E82E0E82EF12C93E0A92EB2
:1024F000B12C88248394912CF801832D11928A9514
:10250000E9F780E090E00E949F102B013C01809150
:10251000E3039091E403A091E503B091E6038415F1
:102520009505A605B70511F12AE0A801C301B2017E
:102530000E94961781E798E00E94B40E6801F601A8
:1025400081916F01882319F00E949B0EF8CF8BE6D2
:1025500098E00E94B40E82B1822582B94092E303D2
:102560005092E4036092E5037092E603F80180E183
:1025700011928A95E9F70E94010D882309F472C02F
:10258000CE0141960E945A0DC0900304D0900404DD
:10259000C114D10441F4B0920302A09202029092BD
:1025A0000102809200026988712CC114D10409F4DF
:1025B0004BC0F60160817181A301CE0142960E9459
:1025C0003F17892BC9F510920302109202028091E5
:1025D000010490910204019729F4109201021092D3
:1025E000000204C0B0920102A09200029092020484
:1025F0008092010480E090E00E949F106093FD03B0
:102600007093FE038093FF0390930004F601C4804F
:10261000D580B6018091FB039091FC030E946E1758
:10262000892B09F448C11092010210920002D09245
:10263000FC03C092FB0308C0109202041092010434
:10264000F601C680D780B1CF809101049091020439
:10265000892B41F4F0920302E0920202909201026F
:102660008092000280E090E00E949F106093F70348
:102670007093F8038093F9039093FA032091FD037C
:102680003091FE034091FF0350910004DC01CB0127
:10269000821B930BA40BB50B0497A105B10570F039
:1026A0008091010490910204019741F41092FC037F
:1026B0001092FB03F0920102E0920002809102026C
:1026C0009091030281309105C9F038F08230910574
:1026D000C1F10397D1F5109838C080E090E00E94D6
:1026E0009F106093F3037093F4038093F50390932A
:1026F000F603909203028092020227C080E090E0ED
:102700000E949F106093EF037093F0038093F10396
:102710009093F2032091F3033091F4034091F50379
:102720005091F603DC01CB01821B930BA40BB50B7C
:102730000397A105B10548F0F0920302E09202026E
:1027400004C0B0920302A0920202C0900002D09096
:102750000102F1E0CF16D10409F460C030F092E03C
:10276000C916D10409F47FC0A6C08091ED039091F1
:10277000EE03892B21F092B181E0892782B9609123
:10278000FB037091FC038091EB039091EC030E949A
:102790006E17892B31F48091ED039091EE03892B14
:1027A000A1F10E94911080EC0E948E106091FB03B9
:1027B0007091FC0361157105C1F040E150E0C80162
:1027C0000E9487176801F60181916F01882321F02B
:1027D00061E00E940A10F7CF8091FB039091FC0307
:1027E0009093EC038093EB0304C089E898E00E9487
:1027F0007E1080E090E00E949F106093E70370934A
:10280000E8038093E9039093EA03F0920102E092D7
:1028100000021092EE031092ED034DC08091ED0383
:102820009091EE03019729F4F0920102E0920002E8
:1028300042C00E94911080EC0E948E108AE798E0BE
:102840000E947E1080E090E00E949F106093E7035A
:102850007093E8038093E9039093EA03F0920102F6
:10286000E092000224C080E090E00E949F106093FC
:10287000EF037093F0038093F1039093F2032091A0
:10288000E7033091E8034091E9035091EA03DC014A
:10289000CB01821B930BA40BB50B0497A105B105CB
:1028A00050F00E949110B0920102A0920002D092CA
:1028B000EE03C092ED0390918704809186049817EF
:1028C000A1F08091860490E001968F7799278093FC
:1028D0008604FC01EA5FFB4F20818091050490E0B3
:1028E000982F8827820F911D02C080E091E09927E0
:1028F0009E8F8D8F8B30910509F489C0DCF4853073
:10290000910509F494C04CF48130910509F4A2C0FA
:102910008230910509F4C3C0EAC08830910509F4FA
:10292000D1C08A30910509F4E7CD8630910509F4CC
:102930009AC0DDC08031910509F4DECD44F48D30BC
:10294000910591F08E30910509F4D6CDD0C08B3130
:10295000910509F4D1CD8F37910509F4B3C08531C4
:10296000910509F445C0C3C0E091DD03F091DE0399
:1029700088E393E019956091D5037091D60320E028
:1029800030E080E090E0F901E259FC4F42814111D2
:1029900009C0261737070CF016C12F5F3F4FAC0157
:1029A000CA01F1CF261737070CF00DC1AC014F5FFC
:1029B0005F4F880F991FF801E80FF91FC90180596F
:1029C0009C4F91838083483051050CF0D4C0F901AD
:1029D000E259FC4F8281882339F02617370709F422
:1029E000FDC02F5F3F4FF3CF26173707CCF2F6C05D
:1029F0004091D7035091D803141615062CF48EE697
:102A000093E00E94BE0AF4CF60E070E06BC0E091FA
:102A1000DD03F091DE038AE393E019958091D703FB
:102A20009091D8039093D6038093D50365CD6091A0
:102A3000D5037091D6038091D7039091D803681B7A
:102A4000790B8DED93E00E94FF0A8091D503909160
:102A5000D60320C08DED93E00E94480B1092D8035E
:102A60001092D70349CD2091D7033091D80380919C
:102A7000D5039091D603281739070CF03DCD61E0BE
:102A800070E08DED93E00E94FF0A8091D703909152
:102A9000D80301969093D8038093D7032DCD8091CE
:102AA000D7039091D803892B09F426CD6FEF7FEFE0
:102AB0008DED93E00E94FF0A8091D7039091D80397
:102AC0000197E8CF8091D7039091D8031816190683
:102AD00024F48EE693E00E94BE0A6091D7037091C1
:102AE000D803AB018EE693E00E94820B05CD8032C5
:102AF000910539F48091D5039091D603892B21F467
:102B0000FBCC80970CF4F8CC4091D5035091D603C0
:102B1000443651050CF0F0CC8091D7039091D80346
:102B2000481B590BBC0160597C4F8F589C4F0E9429
:102B300055176091D7037091D8038D8DFB01E25931
:102B4000FC4F803211F0828301C01282AB014F5FD3
:102B50005F4F5093D8034093D7038091D503909152
:102B6000D60301969093D6038093D503FC01E259D6
:102B7000FC4F1282B7CFE091DD03F091DE038EE3CC
:102B800093E01995E091DD03F091DE0388E393E093
:102B90001995E091DD03F091DE0380916E03909131
:102BA0006F0319951092D6031092D5031092D80393
:102BB0001092D70345E650E060E070E080E793E0D4
:102BC0000E94671799CC009721F3E091D903F09107
:102BD000DA033097F1F2B8011995DBCFCA01F5CFCE
:102BE0000F931F93CF93DF938230910510F482E00F
:102BF00090E0E0911106F091120620E030E0A0E0B4
:102C0000B0E0309719F1408151810281138148175A
:102C10005907C8F08417950769F4109731F0129698
:102C20000C93129713961C9327C0009311061093D0
:102C3000120622C02115310519F04217530718F466
:102C40009A01BD01EF01DF01F801DBCF211531054C
:102C5000F9F0281B390B2430310580F48A819B81DF
:102C60006115710521F0FB019383828304C0909369
:102C7000120680931106FE01329644C0FE01E20F57
:102C8000F31F8193919322503109398328833AC0ED
:102C900020910F0630911006232B41F4209106025B
:102CA000309107023093100620930F062091040202
:102CB000309105022115310541F42DB73EB7409101
:102CC000080250910902241B350BE0910F06F09188
:102CD0001006E217F307A0F42E1B3F0B2817390745
:102CE00078F0AC014E5F5F4F2417350748F04E0F68
:102CF0005F1F5093100640930F068193919302C07B
:102D0000E0E0F0E0CF01DF91CF911F910F910895A6
:102D1000CF93DF93009709F481C0FC0132971382AF
:102D20001282A0911106B0911206109781F42081B1
:102D30003181820F931F20910F06309110062817C2
:102D4000390751F5F0931006E0930F0667C0ED01C7
:102D500020E030E0CE17DF0740F44A815B819E011E
:102D600041155105F1F0EA01F5CFD383C2834081CB
:102D70005181840F951FC817D90759F4888199810B
:102D8000840F951F0296918380838A819B81938310
:102D900082832115310529F4F0931206E093110680
:102DA0003DC0E901FB83EA8349915991C40FD51FC6
:102DB000EC17FD0761F480819181840F951F0296C5
:102DC000E90199838883828193819B838A83E0E0F0
:102DD000F0E012968D919C911397009719F0FD01E8
:102DE000DC01F7CF8D919C9111979D012E5F3F4F94
:102DF000820F931F20910F06309110062817390774
:102E000069F4309729F4109212061092110602C04C
:102E100013821282B0931006A0930F06DF91CF9118
:102E20000895FC0188279927E89421912032E9F33D
:102E3000293010F02E30C8F32B3241F02D3239F406
:102E4000689404C00E94A517820F911D2191205300
:102E50002A30C0F31EF4909581959F4F08959111EB
:102E60000C94451A80538A50D8F70895FB01DC0171
:102E70008D91059080190110D9F3990B0895FB01EC
:102E8000DC0104C08D910190801921F44150504023
:102E9000C8F7881B990B0895FB01DC0102C0019063
:102EA0000D9241505040D8F708956817790768F49B
:102EB000FB01DC01E40FF51FA40FB51F02C0029057
:102EC0000E9241505040D8F708950C944C17DC01F5
:102ED00001C06D9341505040E0F70895FB01DC01C3
:102EE0008D91019080190110D9F3990B0895FB0180
:102EF000DC0101900D920020E1F70895FC010190A2
:102F00000020E9F7809590958E0F9F1F0895FB0193
:102F1000DC014150504048F001900D920020C9F76B
:102F200001C01D9241505040E0F70895BB272A3060
:102F300051F4992342F4BDE2909580957095619586
:102F40007F4F8F4F9F4F0C94AE177AE0979F902D35
:102F5000879F802D910D11240895BB27FA01A62F7C
:102F60006217710581059105330B30FB66F0AA27C6
:102F7000660F771F881F991FAA1FA21710F0A21BA8
:102F800063953850A9F7A05DAA3308F0A95DA19315
:102F900036F7B111B1931082CA010C945E1A0F93E7
:102FA0001F93CF93DF93CDB7DEB72E970FB6F8946C
:102FB000DEBF0FBECDBF0E891F89888D998D26E09B
:102FC0002C831A83098397FF02C080E090E8019761
:102FD0009E838D83AE01445E5F4F6A8D7B8DCE01F3
:102FE00001960E943B184D815E8157FD0AC02F81DA
:102FF0003885421753070CF49A01F801E20FF31FCA
:1030000010822E960FB6F894DEBF0FBECDBFDF91B3
:10301000CF911F910F9108950F931F93CF93DF933B
:10302000CDB7DEB72E970FB6F894DEBF0FBECDBF7B
:103030000E891F898EE08C831A8309838FEF9FE7A7
:103040009E838D83AE01465E5F4F688D798DCE0184
:1030500001960E943B18EF81F885E00FF11F108266
:103060002E960FB6F894DEBF0FBECDBFDF91CF9185
:103070001F910F9108952F923F924F925F926F92FE
:103080007F928F929F92AF92BF92CF92DF92EF92F8
:10309000FF920F931F93CF93DF93CDB7DEB72B979C
:1030A0000FB6F894DEBF0FBECDBF6C017B018A0165
:1030B000FC0117821682838181FFCCC1CE0101966B
:1030C0003C01F6019381F70193FD859193FF819176
:1030D0007F01882309F4BAC1853239F493FD8591C3
:1030E00093FF81917F01853229F4B60190E00E941F
:1030F0006E1AE7CF912C212C312CFFE1F315D8F07B
:103100008B3279F038F4803279F08332A1F4232DB8
:1031100020611DC08D3261F0803369F4232D216060
:1031200016C0832D8260382EE32DE4603E2E2AC027
:10313000F32DF8601DC037FC2DC020ED280F2A307C
:1031400040F08E32B9F436FC81C1232D2064322E3A
:1031500019C036FE06C08AE0989E200D1124922EDA
:1031600011C0EAE02E9E200D1124222EF32DF062D4
:103170003F2E08C08C3621F4832D8068382E02C083
:10318000883641F4F70193FD859193FF81917F018A
:103190008111B3CF982F9F7D9554933028F40C5F05
:1031A0001F4F9FE399830DC0833631F0833771F051
:1031B000833509F059C021C0F801808189830E5FF1
:1031C0001F4F88248394912C530113C02801F2E0EF
:1031D0004F0E511CF801A080B18036FE03C0692D4E
:1031E00070E002C06FEF7FEFC5010E94531A4C01DF
:1031F0008201F32DFF773F2E16C0280122E0420EF8
:10320000511CF801A080B18036FE03C0692D70E02A
:1032100002C06FEF7FEFC5010E94481A4C01F32DE9
:10322000F0683F2E820133FC1BC0822D90E088168F
:103230009906B0F4B60180E290E00E946E1A2A94DA
:10324000F4CFF50137FC859137FE81915F01B6011E
:1032500090E00E946E1A21102A9421E0821A9108AF
:103260008114910471F7E8C0843611F0893641F574
:10327000F80137FE07C060817181828193810C5F04
:103280001F4F08C060817181072E000C880B990BBD
:103290000E5F1F4FF32DFF763F2E97FF09C09095CD
:1032A0008095709561957F4F8F4F9F4FF0683F2EAF
:1032B0002AE030E0A3010E94AA1A882E861845C091
:1032C000853731F4232D2F7EB22E2AE030E025C041
:1032D000932D997FB92E8F36C1F018F4883579F087
:1032E000B5C0803719F0883721F0B0C0E92FE06110
:1032F000BE2EB4FE0DC0FB2DF460BF2E09C034FEFF
:103300000AC0292F2660B22E06C028E030E005C092
:1033100020E130E002C020E132E0F801B7FE07C052
:1033200060817181828193810C5F1F4F06C0608133
:10333000718180E090E00E5F1F4FA3010E94AA1AE6
:10334000882E8618FB2DFF773F2E36FE0DC0232DCD
:103350002E7FA22E891458F434FE0BC032FC09C013
:10336000832D8E7EA82E05C0B82CA32C03C0B82CAC
:1033700001C0B92CA4FE0FC0FE01E80DF11D808133
:10338000803321F49A2D997EA92E09C0A2FE06C091
:10339000B394B39404C08A2D867809F0B394A3FC47
:1033A00011C0A0FE06C0B21488F4280C922C9B1801
:1033B0000EC0B21460F4B60180E290E00E946E1A72
:1033C000B394F7CFB21418F42B1802C0982C212C08
:1033D000A4FE10C0B60180E390E00E946E1AA2FE27
:1033E00017C0A1FC03C088E790E002C088E590E028
:1033F000B6010CC08A2D867859F0A1FE02C08BE27E
:1034000001C080E2A7FC8DE2B60190E00E946E1A36
:10341000891438F4B60180E390E00E946E1A9A9401
:10342000F7CF8A94F301E80DF11D8081B60190E099
:103430000E946E1A8110F5CF222009F442CEB60107
:1034400080E290E00E946E1A2A94F6CFF6018681FF
:10345000978102C08FEF9FEF2B960FB6F894DEBFD7
:103460000FBECDBFDF91CF911F910F91FF90EF90D5
:10347000DF90CF90BF90AF909F908F907F906F9094
:103480005F904F903F902F90089599278827089537
:10349000FC010590615070400110D8F7809590951F
:1034A0008E0F9F1F0895FC01615070400190011024
:1034B000D8F7809590958E0F9F1F0895DC01FC0131
:1034C000672F71917723E1F7329704C07C916D9358
:1034D00070836291AE17BF07C8F308950F931F93CF
:1034E000CF93DF93FB01238121FD03C08FEF9FEF7B
:1034F0002CC022FF16C04681578124813581421796
:10350000530744F4A081B1819D012F5F3F4F318368
:1035100020838C93268137812F5F3F4F378326830B
:1035200014C08B01EC01FB010084F185E02D19959D
:10353000892BE1F6D80116968D919C9117970196EB
:1035400017969C938E931697CE01DF91CF911F9182
:103550000F910895FA01AA27283051F1203181F105
:10356000E8946F936E7F6E5F7F4F8F4F9F4FAF4F8B
:10357000B1E03ED0B4E03CD0670F781F891F9A1F9E
:10358000A11D680F791F8A1F911DA11D6A0F711D52
:10359000811D911DA11D20D009F468943F912AE05E
:1035A000269F11243019305D3193DEF6CF01089546
:1035B000462F4770405D4193B3E00FD0C9F7F6CF77
:1035C000462F4F70405D4A3318F0495D31FD40523F
:1035D000419302D0A9F7EACFB4E0A69597958795D5
:1035E00077956795BA95C9F70097610571050895B4
:1035F0009B01AC010A2E0694579547953795279560
:10360000BA95C9F7620F731F841F951FA01D0895F7
:04361000F894FFCF5C
:10361400030003000000170620002B032203F0041C
:10362400001A030903C904000103AD02D10403A76E
:10363400029402F509008D024C02E00601480210D2
:10364400021005000B02E701570700E3019A01731A
:10365400080297015D013F090157014601EB07008C
:103664005049434320636F6D706C69616E742077B9
:103674006974682049534F2F494543203134343409
:10368400332D34005049434320636F6D706C69617E
:103694006E7420776974682049534F2F494543203D
:1036A400313830393220284E464329004D494641AD
:1036B4005245204D696E692C203332302062797472
:1036C4006573004D494641524520314B42004D49F6
:1036D4004641524520344B42004D49464152452013
:1036E400556C7472616C69676874206F7220556CD4
:1036F4007472616C696768742043004D4946415295
:103704004520506C7573004D494641524520544E36
:1037140050335858580053414B20696E64696361B3
:1037240074657320554944206973206E6F74206357
:103734006F6D706C6574652E00556E6B6E6F776E71
:103744002074797065003E000D001B5B4B004552F0
:10375400524F523A746F6F206D616E7920746F6BA3
:10376400656E73001B5B44201B5B44001B5B25647C
:0E37740044001B5B2564441B5B25644300007E
:00000001FF
